{
  "abi": [
    {
      "inputs": [],
      "stateMutability": "nonpayable",
      "type": "constructor"
    },
    {
      "anonymous": false,
      "inputs": [
        {
          "indexed": false,
          "internalType": "address",
          "name": "token",
          "type": "address"
        }
      ],
      "name": "newToken",
      "type": "event"
    },
    {
      "inputs": [
        {
          "internalType": "string",
          "name": "name",
          "type": "string"
        },
        {
          "internalType": "string",
          "name": "symbol",
          "type": "string"
        },
        {
          "internalType": "uint8",
          "name": "decimals",
          "type": "uint8"
        },
        {
          "internalType": "address",
          "name": "owner",
          "type": "address"
        }
      ],
      "name": "createToken",
      "outputs": [
        {
          "internalType": "address",
          "name": "",
          "type": "address"
        }
      ],
      "stateMutability": "nonpayable",
      "type": "function"
    }
  ],
  "bytecode": {
    "object": "0x608060405234801561001057600080fd5b50610e21806100206000396000f3fe608060405234801561001057600080fd5b506004361061002b5760003560e01c80634ea7cd7214610030575b600080fd5b61004361003e366004610194565b61005f565b6040516001600160a01b03909116815260200160405180910390f35b60008085858585604051610072906100e4565b61007f9493929190610275565b604051809103906000f08015801561009b573d6000803e3d6000fd5b506040516001600160a01b03821681529091507febd51a764e52d034c8679730121fed8f941e94a836145a5638c1b674e5b2163f9060200160405180910390a195945050505050565b610b2c806102c083390190565b634e487b7160e01b600052604160045260246000fd5b600082601f83011261011857600080fd5b813567ffffffffffffffff80821115610133576101336100f1565b604051601f8301601f19908116603f0116810190828211818310171561015b5761015b6100f1565b8160405283815286602085880101111561017457600080fd5b836020870160208301376000602085830101528094505050505092915050565b600080600080608085870312156101aa57600080fd5b843567ffffffffffffffff808211156101c257600080fd5b6101ce88838901610107565b955060208701359150808211156101e457600080fd5b506101f187828801610107565b935050604085013560ff8116811461020857600080fd5b915060608501356001600160a01b038116811461022457600080fd5b939692955090935050565b6000815180845260005b8181101561025557602081850181015186830182015201610239565b506000602082860101526020601f19601f83011685010191505092915050565b608081526000610288608083018761022f565b828103602084015261029a818761022f565b60ff95909516604084015250506001600160a01b03919091166060909101529291505056fe60806040523480156200001157600080fd5b5060405162000b2c38038062000b2c83398101604081905262000034916200014b565b60036200004285826200027e565b5060046200005184826200027e565b50600580546001600160a01b03909216610100026001600160a81b031990921660ff90931692909217179055506200034a9050565b634e487b7160e01b600052604160045260246000fd5b600082601f830112620000ae57600080fd5b81516001600160401b0380821115620000cb57620000cb62000086565b604051601f8301601f19908116603f01168101908282118183101715620000f657620000f662000086565b816040528381526020925086838588010111156200011357600080fd5b600091505b8382101562000137578582018301518183018401529082019062000118565b600093810190920192909252949350505050565b600080600080608085870312156200016257600080fd5b84516001600160401b03808211156200017a57600080fd5b62000188888389016200009c565b955060208701519150808211156200019f57600080fd5b50620001ae878288016200009c565b935050604085015160ff81168114620001c657600080fd5b60608601519092506001600160a01b0381168114620001e457600080fd5b939692955090935050565b600181811c908216806200020457607f821691505b6020821081036200022557634e487b7160e01b600052602260045260246000fd5b50919050565b601f8211156200027957600081815260208120601f850160051c81016020861015620002545750805b601f850160051c820191505b81811015620002755782815560010162000260565b5050505b505050565b81516001600160401b038111156200029a576200029a62000086565b620002b281620002ab8454620001ef565b846200022b565b602080601f831160018114620002ea5760008415620002d15750858301515b600019600386901b1c1916600185901b17855562000275565b600085815260208120601f198616915b828110156200031b57888601518255948401946001909101908401620002fa565b50858210156200033a5787850151600019600388901b60f8161c191681555b5050505050600190811b01905550565b6107d2806200035a6000396000f3fe608060405234801561001057600080fd5b50600436106100cf5760003560e01c80634e6ec2471161008c57806395d89b411161006657806395d89b41146101d65780639dc29fac146101de578063a9059cbb146101f1578063dd62ed3e1461020457600080fd5b80634e6ec2471461017357806370a08231146101865780638da5cb5b146101a657600080fd5b806306fdde03146100d4578063095ea7b3146100f257806318160ddd1461011557806323b872dd1461012c578063313ce5671461013f57806340c10f191461015e575b600080fd5b6100dc61022f565b6040516100e991906105e1565b60405180910390f35b61010561010036600461064b565b6102bd565b60405190151581526020016100e9565b61011e60005481565b6040519081526020016100e9565b61010561013a366004610675565b61032a565b60055461014c9060ff1681565b60405160ff90911681526020016100e9565b61017161016c36600461064b565b610405565b005b61017161018136600461064b565b610413565b61011e6101943660046106b1565b60016020526000908152604090205481565b6005546101be9061010090046001600160a01b031681565b6040516001600160a01b0390911681526020016100e9565b6100dc6104db565b6101716101ec36600461064b565b6104e8565b6101056101ff36600461064b565b6104f2565b61011e6102123660046106d3565b600260209081526000928352604080842090915290825290205481565b6003805461023c90610706565b80601f016020809104026020016040519081016040528092919081815260200182805461026890610706565b80156102b55780601f1061028a576101008083540402835291602001916102b5565b820191906000526020600020905b81548152906001019060200180831161029857829003601f168201915b505050505081565b3360008181526002602090815260408083206001600160a01b038716808552925280832085905551919290917f8c5be1e5ebec7d5bd14f71427d1e84f3dd0314c0f7b2291e5b200ac8c7c3b925906103189086815260200190565b60405180910390a35060015b92915050565b6001600160a01b038316600090815260026020908152604080832033845290915281208054839190839061035f908490610756565b90915550506001600160a01b0384166000908152600160205260408120805484929061038c908490610756565b90915550506001600160a01b038316600090815260016020526040812080548492906103b9908490610769565b92505081905550826001600160a01b0316846001600160a01b031660008051602061077d833981519152846040516103f391815260200190565b60405180910390a35060019392505050565b61040f8282610413565b5050565b60055461010090046001600160a01b031633146104625760405162461bcd60e51b81526020600482015260096024820152682737ba1037bbb732b960b91b604482015260640160405180910390fd5b6001600160a01b0382166000908152600160205260408120805483929061048a908490610769565b92505081905550806000808282546104a29190610769565b90915550506040518181526001600160a01b0383169060009060008051602061077d833981519152906020015b60405180910390a35050565b6004805461023c90610706565b61040f8282610570565b33600090815260016020526040812080548391908390610513908490610756565b90915550506001600160a01b03831660009081526001602052604081208054849290610540908490610769565b90915550506040518281526001600160a01b03841690339060008051602061077d83398151915290602001610318565b6001600160a01b03821660009081526001602052604081208054839290610598908490610756565b92505081905550806000808282546105b09190610756565b90915550506040518181526000906001600160a01b0384169060008051602061077d833981519152906020016104cf565b600060208083528351808285015260005b8181101561060e578581018301518582016040015282016105f2565b506000604082860101526040601f19601f8301168501019250505092915050565b80356001600160a01b038116811461064657600080fd5b919050565b6000806040838503121561065e57600080fd5b6106678361062f565b946020939093013593505050565b60008060006060848603121561068a57600080fd5b6106938461062f565b92506106a16020850161062f565b9150604084013590509250925092565b6000602082840312156106c357600080fd5b6106cc8261062f565b9392505050565b600080604083850312156106e657600080fd5b6106ef8361062f565b91506106fd6020840161062f565b90509250929050565b600181811c9082168061071a57607f821691505b60208210810361073a57634e487b7160e01b600052602260045260246000fd5b50919050565b634e487b7160e01b600052601160045260246000fd5b8181038181111561032457610324610740565b808201808211156103245761032461074056feddf252ad1be2c89b69c2b068fc378daa952ba7f163c4a11628f55a4df523b3efa2646970667358221220ed63787ccc925598dde8787cf9a2c7d1eb831c551d76a3084215dc684b9e378d64736f6c63430008140033a2646970667358221220549aab4a2501d2f90ae7401da0da39e6c5cd2bce7bd563f7ed133b0fbf8554d664736f6c63430008140033",
    "linkReferences": {}
  },
  "methodIdentifiers": {
    "createToken(string,string,uint8,address)": "4ea7cd72"
  },
  "id": 13
}