{
  "_format": "hh-sol-artifact-1",
  "contractName": "IndexStrat",
  "sourceName": "src/IndexStrat.sol",
  "abi": [
    {
      "inputs": [
        {
          "internalType": "address",
          "name": "_depositToken",
          "type": "address"
        },
        {
          "internalType": "address[]",
          "name": "_tokens",
          "type": "address[]"
        },
        {
          "internalType": "uint256[]",
          "name": "_allocations",
          "type": "uint256[]"
        },
        {
          "internalType": "uint24[]",
          "name": "_swapFees",
          "type": "uint24[]"
        }
      ],
      "stateMutability": "nonpayable",
      "type": "constructor"
    },
    {
      "inputs": [
        {
          "internalType": "uint256",
          "name": "",
          "type": "uint256"
        }
      ],
      "name": "allocations",
      "outputs": [
        {
          "internalType": "uint256",
          "name": "",
          "type": "uint256"
        }
      ],
      "stateMutability": "view",
      "type": "function"
    },
    {
      "inputs": [],
      "name": "balanceOf",
      "outputs": [
        {
          "internalType": "uint256",
          "name": "",
          "type": "uint256"
        }
      ],
      "stateMutability": "view",
      "type": "function"
    },
    {
      "inputs": [
        {
          "internalType": "uint256",
          "name": "_amount",
          "type": "uint256"
        }
      ],
      "name": "deposit",
      "outputs": [],
      "stateMutability": "nonpayable",
      "type": "function"
    },
    {
      "inputs": [],
      "name": "depositToken",
      "outputs": [
        {
          "internalType": "address",
          "name": "",
          "type": "address"
        }
      ],
      "stateMutability": "view",
      "type": "function"
    },
    {
      "inputs": [],
      "name": "factory",
      "outputs": [
        {
          "internalType": "address",
          "name": "",
          "type": "address"
        }
      ],
      "stateMutability": "view",
      "type": "function"
    },
    {
      "inputs": [],
      "name": "fullMath",
      "outputs": [
        {
          "internalType": "address",
          "name": "",
          "type": "address"
        }
      ],
      "stateMutability": "view",
      "type": "function"
    },
    {
      "inputs": [
        {
          "internalType": "int24",
          "name": "tick",
          "type": "int24"
        },
        {
          "internalType": "uint128",
          "name": "baseAmount",
          "type": "uint128"
        },
        {
          "internalType": "address",
          "name": "baseToken",
          "type": "address"
        },
        {
          "internalType": "address",
          "name": "quoteToken",
          "type": "address"
        }
      ],
      "name": "getQuoteAtTick",
      "outputs": [
        {
          "internalType": "uint256",
          "name": "quoteAmount",
          "type": "uint256"
        }
      ],
      "stateMutability": "view",
      "type": "function"
    },
    {
      "inputs": [],
      "name": "owner",
      "outputs": [
        {
          "internalType": "address",
          "name": "",
          "type": "address"
        }
      ],
      "stateMutability": "view",
      "type": "function"
    },
    {
      "inputs": [],
      "name": "rebalance",
      "outputs": [],
      "stateMutability": "nonpayable",
      "type": "function"
    },
    {
      "inputs": [],
      "name": "router",
      "outputs": [
        {
          "internalType": "address",
          "name": "",
          "type": "address"
        }
      ],
      "stateMutability": "view",
      "type": "function"
    },
    {
      "inputs": [
        {
          "internalType": "uint256",
          "name": "",
          "type": "uint256"
        }
      ],
      "name": "swapFees",
      "outputs": [
        {
          "internalType": "uint24",
          "name": "",
          "type": "uint24"
        }
      ],
      "stateMutability": "view",
      "type": "function"
    },
    {
      "inputs": [],
      "name": "tickMath",
      "outputs": [
        {
          "internalType": "address",
          "name": "",
          "type": "address"
        }
      ],
      "stateMutability": "view",
      "type": "function"
    },
    {
      "inputs": [
        {
          "internalType": "address",
          "name": "tokenX",
          "type": "address"
        },
        {
          "internalType": "address",
          "name": "tokenY",
          "type": "address"
        },
        {
          "internalType": "uint24",
          "name": "xToyFees",
          "type": "uint24"
        },
        {
          "internalType": "uint256",
          "name": "amount",
          "type": "uint256"
        }
      ],
      "name": "tokenAToTokenBConversion",
      "outputs": [
        {
          "internalType": "uint256",
          "name": "",
          "type": "uint256"
        }
      ],
      "stateMutability": "view",
      "type": "function"
    },
    {
      "inputs": [
        {
          "internalType": "uint256",
          "name": "",
          "type": "uint256"
        }
      ],
      "name": "tokens",
      "outputs": [
        {
          "internalType": "address",
          "name": "",
          "type": "address"
        }
      ],
      "stateMutability": "view",
      "type": "function"
    },
    {
      "inputs": [
        {
          "internalType": "address",
          "name": "_reci",
          "type": "address"
        },
        {
          "internalType": "uint256",
          "name": "_amount",
          "type": "uint256"
        }
      ],
      "name": "withdraw",
      "outputs": [],
      "stateMutability": "nonpayable",
      "type": "function"
    }
  ],
  "bytecode": "0x60806040523480156200001157600080fd5b5060405162002d2038038062002d20833981810160405281019062000037919062000997565b336000806101000a81548173ffffffffffffffffffffffffffffffffffffffff021916908373ffffffffffffffffffffffffffffffffffffffff16021790555083600360006101000a81548173ffffffffffffffffffffffffffffffffffffffff021916908373ffffffffffffffffffffffffffffffffffffffff1602179055507368b3465833fb72a70ecdf485e0e4c7bd8665fc45600760006101000a81548173ffffffffffffffffffffffffffffffffffffffff021916908373ffffffffffffffffffffffffffffffffffffffff1602179055507319f51834817708f2da9ac7d0cc3eaff0b6ed17d7600160006101000a81548173ffffffffffffffffffffffffffffffffffffffff021916908373ffffffffffffffffffffffffffffffffffffffff16021790555073642e8455f280d1f5f252dffe0a264810a80a7df7600260006101000a81548173ffffffffffffffffffffffffffffffffffffffff021916908373ffffffffffffffffffffffffffffffffffffffff160217905550731f98431c8ad98523631ae4a59f267346ea31f984600860006101000a81548173ffffffffffffffffffffffffffffffffffffffff021916908373ffffffffffffffffffffffffffffffffffffffff16021790555060005b83518110156200035657600484828151811062000231576200023062000a66565b5b60200260200101519080600181540180825580915050600190039060005260206000200160009091909190916101000a81548173ffffffffffffffffffffffffffffffffffffffff021916908373ffffffffffffffffffffffffffffffffffffffff1602179055506005838281518110620002b157620002b062000a66565b5b602002602001015190806001815401808255809150506001900390600052602060002001600090919091909150556006828281518110620002f757620002f662000a66565b5b602002602001015190806001815401808255809150506001900390600052602060002090600a91828204019190066003029091909190916101000a81548162ffffff021916908362ffffff16021790555080806001019150506200020f565b50620003676200037160201b60201c565b5050505062000b53565b600360009054906101000a900473ffffffffffffffffffffffffffffffffffffffff1673ffffffffffffffffffffffffffffffffffffffff1663095ea7b3600760009054906101000a900473ffffffffffffffffffffffffffffffffffffffff167fffffffffffffffffffffffffffffffffffffffffffffffffffffffffffffffff6040518363ffffffff1660e01b81526004016200041292919062000ab7565b6020604051808303816000875af115801562000432573d6000803e3d6000fd5b505050506040513d601f19601f8201168201806040525081019062000458919062000b21565b5060005b6004805490508110156200057f576004818154811062000481576200048062000a66565b5b9060005260206000200160009054906101000a900473ffffffffffffffffffffffffffffffffffffffff1673ffffffffffffffffffffffffffffffffffffffff1663095ea7b3600760009054906101000a900473ffffffffffffffffffffffffffffffffffffffff167fffffffffffffffffffffffffffffffffffffffffffffffffffffffffffffffff6040518363ffffffff1660e01b81526004016200052a92919062000ab7565b6020604051808303816000875af11580156200054a573d6000803e3d6000fd5b505050506040513d601f19601f8201168201806040525081019062000570919062000b21565b5080806001019150506200045c565b50565b6000604051905090565b600080fd5b600080fd5b600073ffffffffffffffffffffffffffffffffffffffff82169050919050565b6000620005c38262000596565b9050919050565b620005d581620005b6565b8114620005e157600080fd5b50565b600081519050620005f581620005ca565b92915050565b600080fd5b6000601f19601f8301169050919050565b7f4e487b7100000000000000000000000000000000000000000000000000000000600052604160045260246000fd5b6200064b8262000600565b810181811067ffffffffffffffff821117156200066d576200066c62000611565b5b80604052505050565b60006200068262000582565b905062000690828262000640565b919050565b600067ffffffffffffffff821115620006b357620006b262000611565b5b602082029050602081019050919050565b600080fd5b6000620006e0620006da8462000695565b62000676565b90508083825260208201905060208402830185811115620007065762000705620006c4565b5b835b818110156200073357806200071e8882620005e4565b84526020840193505060208101905062000708565b5050509392505050565b600082601f830112620007555762000754620005fb565b5b815162000767848260208601620006c9565b91505092915050565b600067ffffffffffffffff8211156200078e576200078d62000611565b5b602082029050602081019050919050565b6000819050919050565b620007b4816200079f565b8114620007c057600080fd5b50565b600081519050620007d481620007a9565b92915050565b6000620007f1620007eb8462000770565b62000676565b90508083825260208201905060208402830185811115620008175762000816620006c4565b5b835b818110156200084457806200082f8882620007c3565b84526020840193505060208101905062000819565b5050509392505050565b600082601f830112620008665762000865620005fb565b5b815162000878848260208601620007da565b91505092915050565b600067ffffffffffffffff8211156200089f576200089e62000611565b5b602082029050602081019050919050565b600062ffffff82169050919050565b620008ca81620008b0565b8114620008d657600080fd5b50565b600081519050620008ea81620008bf565b92915050565b600062000907620009018462000881565b62000676565b905080838252602082019050602084028301858111156200092d576200092c620006c4565b5b835b818110156200095a5780620009458882620008d9565b8452602084019350506020810190506200092f565b5050509392505050565b600082601f8301126200097c576200097b620005fb565b5b81516200098e848260208601620008f0565b91505092915050565b60008060008060808587031215620009b457620009b36200058c565b5b6000620009c487828801620005e4565b945050602085015167ffffffffffffffff811115620009e857620009e762000591565b5b620009f6878288016200073d565b935050604085015167ffffffffffffffff81111562000a1a5762000a1962000591565b5b62000a28878288016200084e565b925050606085015167ffffffffffffffff81111562000a4c5762000a4b62000591565b5b62000a5a8782880162000964565b91505092959194509250565b7f4e487b7100000000000000000000000000000000000000000000000000000000600052603260045260246000fd5b62000aa081620005b6565b82525050565b62000ab1816200079f565b82525050565b600060408201905062000ace600083018562000a95565b62000add602083018462000aa6565b9392505050565b60008115159050919050565b62000afb8162000ae4565b811462000b0757600080fd5b50565b60008151905062000b1b8162000af0565b92915050565b60006020828403121562000b3a5762000b396200058c565b5b600062000b4a8482850162000b0a565b91505092915050565b6121bd8062000b636000396000f3fe608060405234801561001057600080fd5b50600436106100f55760003560e01c80638da5cb5b11610097578063dadb8f2e11610066578063dadb8f2e14610276578063f3fef3a3146102a6578063f565e291146102c2578063f887ea40146102e0576100f5565b80638da5cb5b14610200578063b6b55f251461021e578063c45a01551461023a578063c89039c514610258576100f5565b80634f64b2be116100d35780634f64b2be14610178578063722713f7146101a85780637b4e8038146101c65780637d7c2a1c146101f6576100f5565b80630a2642bf146100fa57806343c57a271461012a578063493366961461015a575b600080fd5b610114600480360381019061010f9190611655565b6102fe565b6040516101219190611691565b60405180910390f35b610144600480360381019061013f919061178b565b610322565b6040516101519190611691565b60405180910390f35b610162610836565b60405161016f9190611801565b60405180910390f35b610192600480360381019061018d9190611655565b61085c565b60405161019f9190611801565b60405180910390f35b6101b061089b565b6040516101bd9190611691565b60405180910390f35b6101e060048036038101906101db9190611655565b610a2b565b6040516101ed919061183a565b60405180910390f35b6101fe610a64565b005b610208610b04565b6040516102159190611801565b60405180910390f35b61023860048036038101906102339190611655565b610b28565b005b610242610c64565b60405161024f9190611801565b60405180910390f35b610260610c8a565b60405161026d9190611801565b60405180910390f35b610290600480360381019061028b9190611881565b610cb0565b60405161029d9190611691565b60405180910390f35b6102c060048036038101906102bb91906118e8565b610de6565b005b6102ca61116a565b6040516102d79190611801565b60405180910390f35b6102e8611190565b6040516102f59190611801565b60405180910390f35b6005818154811061030e57600080fd5b906000526020600020016000915090505481565b600080600260009054906101000a900473ffffffffffffffffffffffffffffffffffffffff1673ffffffffffffffffffffffffffffffffffffffff1663986cfba3876040518263ffffffff1660e01b81526004016103809190611937565b602060405180830381865afa15801561039d573d6000803e3d6000fd5b505050506040513d601f19601f820116820180604052508101906103c1919061197e565b90506fffffffffffffffffffffffffffffffff80168173ffffffffffffffffffffffffffffffffffffffff16116105e15760008173ffffffffffffffffffffffffffffffffffffffff168273ffffffffffffffffffffffffffffffffffffffff1661042c91906119da565b90508373ffffffffffffffffffffffffffffffffffffffff168573ffffffffffffffffffffffffffffffffffffffff161061051f57600160009054906101000a900473ffffffffffffffffffffffffffffffffffffffff1673ffffffffffffffffffffffffffffffffffffffff1663aa9a0912780100000000000000000000000000000000000000000000000088846040518463ffffffff1660e01b81526004016104d993929190611a92565b602060405180830381865afa1580156104f6573d6000803e3d6000fd5b505050506040513d601f19601f8201168201806040525081019061051a9190611ade565b6105d9565b600160009054906101000a900473ffffffffffffffffffffffffffffffffffffffff1673ffffffffffffffffffffffffffffffffffffffff1663aa9a0912828878010000000000000000000000000000000000000000000000006040518463ffffffff1660e01b815260040161059793929190611b0b565b602060405180830381865afa1580156105b4573d6000803e3d6000fd5b505050506040513d601f19601f820116820180604052508101906105d89190611ade565b5b92505061082d565b6000600160009054906101000a900473ffffffffffffffffffffffffffffffffffffffff1673ffffffffffffffffffffffffffffffffffffffff1663aa9a09128384680100000000000000006040518463ffffffff1660e01b815260040161064b93929190611bae565b602060405180830381865afa158015610668573d6000803e3d6000fd5b505050506040513d601f19601f8201168201806040525081019061068c9190611ade565b90508373ffffffffffffffffffffffffffffffffffffffff168573ffffffffffffffffffffffffffffffffffffffff161061077757600160009054906101000a900473ffffffffffffffffffffffffffffffffffffffff1673ffffffffffffffffffffffffffffffffffffffff1663aa9a091270010000000000000000000000000000000088846040518463ffffffff1660e01b815260040161073193929190611c20565b602060405180830381865afa15801561074e573d6000803e3d6000fd5b505050506040513d601f19601f820116820180604052508101906107729190611ade565b610829565b600160009054906101000a900473ffffffffffffffffffffffffffffffffffffffff1673ffffffffffffffffffffffffffffffffffffffff1663aa9a091282887001000000000000000000000000000000006040518463ffffffff1660e01b81526004016107e793929190611c57565b602060405180830381865afa158015610804573d6000803e3d6000fd5b505050506040513d601f19601f820116820180604052508101906108289190611ade565b5b9250505b50949350505050565b600260009054906101000a900473ffffffffffffffffffffffffffffffffffffffff1681565b6004818154811061086c57600080fd5b906000526020600020016000915054906101000a900473ffffffffffffffffffffffffffffffffffffffff1681565b60008060005b600480549050811015610a2357610a09600482815481106108c5576108c4611c8e565b5b9060005260206000200160009054906101000a900473ffffffffffffffffffffffffffffffffffffffff16600360009054906101000a900473ffffffffffffffffffffffffffffffffffffffff166006848154811061092757610926611c8e565b5b90600052602060002090600a91828204019190066003029054906101000a900462ffffff16600485815481106109605761095f611c8e565b5b9060005260206000200160009054906101000a900473ffffffffffffffffffffffffffffffffffffffff1673ffffffffffffffffffffffffffffffffffffffff166370a08231306040518263ffffffff1660e01b81526004016109c39190611801565b602060405180830381865afa1580156109e0573d6000803e3d6000fd5b505050506040513d601f19601f82011682018060405250810190610a049190611ade565b610cb0565b82610a149190611cbd565b915080806001019150506108a1565b508091505090565b60068181548110610a3b57600080fd5b90600052602060002090600a9182820401919006600302915054906101000a900462ffffff1681565b60008054906101000a900473ffffffffffffffffffffffffffffffffffffffff1673ffffffffffffffffffffffffffffffffffffffff163373ffffffffffffffffffffffffffffffffffffffff1614610af2576040517f08c379a0000000000000000000000000000000000000000000000000000000008152600401610ae990611d4e565b60405180910390fd5b610afa6111b6565b610b0261133b565b565b60008054906101000a900473ffffffffffffffffffffffffffffffffffffffff1681565b60008054906101000a900473ffffffffffffffffffffffffffffffffffffffff1673ffffffffffffffffffffffffffffffffffffffff163373ffffffffffffffffffffffffffffffffffffffff1614610bb6576040517f08c379a0000000000000000000000000000000000000000000000000000000008152600401610bad90611dba565b60405180910390fd5b600360009054906101000a900473ffffffffffffffffffffffffffffffffffffffff1673ffffffffffffffffffffffffffffffffffffffff166323b872dd3330846040518463ffffffff1660e01b8152600401610c1593929190611dda565b6020604051808303816000875af1158015610c34573d6000803e3d6000fd5b505050506040513d601f19601f82011682018060405250810190610c589190611e49565b50610c6161133b565b50565b600860009054906101000a900473ffffffffffffffffffffffffffffffffffffffff1681565b600360009054906101000a900473ffffffffffffffffffffffffffffffffffffffff1681565b600080600860009054906101000a900473ffffffffffffffffffffffffffffffffffffffff1673ffffffffffffffffffffffffffffffffffffffff16631698ee828787876040518463ffffffff1660e01b8152600401610d1293929190611e76565b602060405180830381865afa158015610d2f573d6000803e3d6000fd5b505050506040513d601f19601f82011682018060405250810190610d539190611ec2565b905060008173ffffffffffffffffffffffffffffffffffffffff16633850c7bd6040518163ffffffff1660e01b815260040160e060405180830381865afa158015610da2573d6000803e3d6000fd5b505050506040513d601f19601f82011682018060405250810190610dc69190611f77565b5050505050915050610dda81858989610322565b92505050949350505050565b60008054906101000a900473ffffffffffffffffffffffffffffffffffffffff1673ffffffffffffffffffffffffffffffffffffffff163373ffffffffffffffffffffffffffffffffffffffff1614610e74576040517f08c379a0000000000000000000000000000000000000000000000000000000008152600401610e6b90611dba565b60405180910390fd5b600080600090505b60048054905081101561101657610f62600360009054906101000a900473ffffffffffffffffffffffffffffffffffffffff1660048381548110610ec357610ec2611c8e565b5b9060005260206000200160009054906101000a900473ffffffffffffffffffffffffffffffffffffffff1660068481548110610f0257610f01611c8e565b5b90600052602060002090600a91828204019190066003029054906101000a900462ffffff16606460058681548110610f3d57610f3c611c8e565b5b906000526020600020015488610f5391906119da565b610f5d9190612048565b610cb0565b915061100860048281548110610f7b57610f7a611c8e565b5b9060005260206000200160009054906101000a900473ffffffffffffffffffffffffffffffffffffffff16600360009054906101000a900473ffffffffffffffffffffffffffffffffffffffff168460068581548110610fde57610fdd611c8e565b5b90600052602060002090600a91828204019190066003029054906101000a900462ffffff166114df565b508080600101915050610e7c565b506000600360009054906101000a900473ffffffffffffffffffffffffffffffffffffffff1673ffffffffffffffffffffffffffffffffffffffff166370a08231306040518263ffffffff1660e01b81526004016110749190611801565b602060405180830381865afa158015611091573d6000803e3d6000fd5b505050506040513d601f19601f820116820180604052508101906110b59190611ade565b9050828110156110c3578092505b600360009054906101000a900473ffffffffffffffffffffffffffffffffffffffff1673ffffffffffffffffffffffffffffffffffffffff1663a9059cbb85856040518363ffffffff1660e01b8152600401611120929190612079565b6020604051808303816000875af115801561113f573d6000803e3d6000fd5b505050506040513d601f19601f820116820180604052508101906111639190611e49565b5050505050565b600160009054906101000a900473ffffffffffffffffffffffffffffffffffffffff1681565b600760009054906101000a900473ffffffffffffffffffffffffffffffffffffffff1681565b600080600090505b60048054905081101561133757600481815481106111df576111de611c8e565b5b9060005260206000200160009054906101000a900473ffffffffffffffffffffffffffffffffffffffff1673ffffffffffffffffffffffffffffffffffffffff166370a08231306040518263ffffffff1660e01b81526004016112429190611801565b602060405180830381865afa15801561125f573d6000803e3d6000fd5b505050506040513d601f19601f820116820180604052508101906112839190611ade565b91506113296004828154811061129c5761129b611c8e565b5b9060005260206000200160009054906101000a900473ffffffffffffffffffffffffffffffffffffffff16600360009054906101000a900473ffffffffffffffffffffffffffffffffffffffff1684600685815481106112ff576112fe611c8e565b5b90600052602060002090600a91828204019190066003029054906101000a900462ffffff166114df565b5080806001019150506111be565b5050565b6000600360009054906101000a900473ffffffffffffffffffffffffffffffffffffffff1673ffffffffffffffffffffffffffffffffffffffff166370a08231306040518263ffffffff1660e01b81526004016113989190611801565b602060405180830381865afa1580156113b5573d6000803e3d6000fd5b505050506040513d601f19601f820116820180604052508101906113d99190611ade565b9050600080600090505b6004805490508110156114da5760646005828154811061140657611405611c8e565b5b90600052602060002001548461141c91906119da565b6114269190612048565b91506114cc600360009054906101000a900473ffffffffffffffffffffffffffffffffffffffff166004838154811061146257611461611c8e565b5b9060005260206000200160009054906101000a900473ffffffffffffffffffffffffffffffffffffffff1684600685815481106114a2576114a1611c8e565b5b90600052602060002090600a91828204019190066003029054906101000a900462ffffff166114df565b5080806001019150506113e3565b505050565b6000600760009054906101000a900473ffffffffffffffffffffffffffffffffffffffff1673ffffffffffffffffffffffffffffffffffffffff166304e45aaf6040518060e001604052808873ffffffffffffffffffffffffffffffffffffffff1681526020018773ffffffffffffffffffffffffffffffffffffffff1681526020018562ffffff1681526020013073ffffffffffffffffffffffffffffffffffffffff16815260200186815260200160008152602001600073ffffffffffffffffffffffffffffffffffffffff168152506040518263ffffffff1660e01b81526004016115cd919061216c565b6020604051808303816000875af11580156115ec573d6000803e3d6000fd5b505050506040513d601f19601f820116820180604052508101906116109190611ade565b9050949350505050565b600080fd5b6000819050919050565b6116328161161f565b811461163d57600080fd5b50565b60008135905061164f81611629565b92915050565b60006020828403121561166b5761166a61161a565b5b600061167984828501611640565b91505092915050565b61168b8161161f565b82525050565b60006020820190506116a66000830184611682565b92915050565b60008160020b9050919050565b6116c2816116ac565b81146116cd57600080fd5b50565b6000813590506116df816116b9565b92915050565b60006fffffffffffffffffffffffffffffffff82169050919050565b61170a816116e5565b811461171557600080fd5b50565b60008135905061172781611701565b92915050565b600073ffffffffffffffffffffffffffffffffffffffff82169050919050565b60006117588261172d565b9050919050565b6117688161174d565b811461177357600080fd5b50565b6000813590506117858161175f565b92915050565b600080600080608085870312156117a5576117a461161a565b5b60006117b3878288016116d0565b94505060206117c487828801611718565b93505060406117d587828801611776565b92505060606117e687828801611776565b91505092959194509250565b6117fb8161174d565b82525050565b600060208201905061181660008301846117f2565b92915050565b600062ffffff82169050919050565b6118348161181c565b82525050565b600060208201905061184f600083018461182b565b92915050565b61185e8161181c565b811461186957600080fd5b50565b60008135905061187b81611855565b92915050565b6000806000806080858703121561189b5761189a61161a565b5b60006118a987828801611776565b94505060206118ba87828801611776565b93505060406118cb8782880161186c565b92505060606118dc87828801611640565b91505092959194509250565b600080604083850312156118ff576118fe61161a565b5b600061190d85828601611776565b925050602061191e85828601611640565b9150509250929050565b611931816116ac565b82525050565b600060208201905061194c6000830184611928565b92915050565b61195b8161172d565b811461196657600080fd5b50565b60008151905061197881611952565b92915050565b6000602082840312156119945761199361161a565b5b60006119a284828501611969565b91505092915050565b7f4e487b7100000000000000000000000000000000000000000000000000000000600052601160045260246000fd5b60006119e58261161f565b91506119f08361161f565b92508282026119fe8161161f565b91508282048414831517611a1557611a146119ab565b5b5092915050565b6000819050919050565b6000819050919050565b6000611a4b611a46611a4184611a1c565b611a26565b61161f565b9050919050565b611a5b81611a30565b82525050565b6000611a7c611a77611a72846116e5565b611a26565b61161f565b9050919050565b611a8c81611a61565b82525050565b6000606082019050611aa76000830186611a52565b611ab46020830185611a83565b611ac16040830184611682565b949350505050565b600081519050611ad881611629565b92915050565b600060208284031215611af457611af361161a565b5b6000611b0284828501611ac9565b91505092915050565b6000606082019050611b206000830186611682565b611b2d6020830185611a83565b611b3a6040830184611a52565b949350505050565b6000611b5d611b58611b538461172d565b611a26565b61161f565b9050919050565b611b6d81611b42565b82525050565b6000819050919050565b6000611b98611b93611b8e84611b73565b611a26565b61161f565b9050919050565b611ba881611b7d565b82525050565b6000606082019050611bc36000830186611b64565b611bd06020830185611b64565b611bdd6040830184611b9f565b949350505050565b6000819050919050565b6000611c0a611c05611c0084611be5565b611a26565b61161f565b9050919050565b611c1a81611bef565b82525050565b6000606082019050611c356000830186611c11565b611c426020830185611a83565b611c4f6040830184611682565b949350505050565b6000606082019050611c6c6000830186611682565b611c796020830185611a83565b611c866040830184611c11565b949350505050565b7f4e487b7100000000000000000000000000000000000000000000000000000000600052603260045260246000fd5b6000611cc88261161f565b9150611cd38361161f565b9250828201905080821115611ceb57611cea6119ab565b5b92915050565b600082825260208201905092915050565b7f596f7520617265206e6f74206f776e6572000000000000000000000000000000600082015250565b6000611d38601183611cf1565b9150611d4382611d02565b602082019050919050565b60006020820190508181036000830152611d6781611d2b565b9050919050565b7f596f7520617265206e6f7420746865206f776e65720000000000000000000000600082015250565b6000611da4601583611cf1565b9150611daf82611d6e565b602082019050919050565b60006020820190508181036000830152611dd381611d97565b9050919050565b6000606082019050611def60008301866117f2565b611dfc60208301856117f2565b611e096040830184611682565b949350505050565b60008115159050919050565b611e2681611e11565b8114611e3157600080fd5b50565b600081519050611e4381611e1d565b92915050565b600060208284031215611e5f57611e5e61161a565b5b6000611e6d84828501611e34565b91505092915050565b6000606082019050611e8b60008301866117f2565b611e9860208301856117f2565b611ea5604083018461182b565b949350505050565b600081519050611ebc8161175f565b92915050565b600060208284031215611ed857611ed761161a565b5b6000611ee684828501611ead565b91505092915050565b600081519050611efe816116b9565b92915050565b600061ffff82169050919050565b611f1b81611f04565b8114611f2657600080fd5b50565b600081519050611f3881611f12565b92915050565b600060ff82169050919050565b611f5481611f3e565b8114611f5f57600080fd5b50565b600081519050611f7181611f4b565b92915050565b600080600080600080600060e0888a031215611f9657611f9561161a565b5b6000611fa48a828b01611969565b9750506020611fb58a828b01611eef565b9650506040611fc68a828b01611f29565b9550506060611fd78a828b01611f29565b9450506080611fe88a828b01611f29565b93505060a0611ff98a828b01611f62565b92505060c061200a8a828b01611e34565b91505092959891949750929550565b7f4e487b7100000000000000000000000000000000000000000000000000000000600052601260045260246000fd5b60006120538261161f565b915061205e8361161f565b92508261206e5761206d612019565b5b828204905092915050565b600060408201905061208e60008301856117f2565b61209b6020830184611682565b9392505050565b6120ab8161174d565b82525050565b6120ba8161181c565b82525050565b6120c98161161f565b82525050565b6120d88161172d565b82525050565b60e0820160008201516120f460008501826120a2565b50602082015161210760208501826120a2565b50604082015161211a60408501826120b1565b50606082015161212d60608501826120a2565b50608082015161214060808501826120c0565b5060a082015161215360a08501826120c0565b5060c082015161216660c08501826120cf565b50505050565b600060e08201905061218160008301846120de565b9291505056fea264697066735822122078719a0d74024af3a97a3564ec4f347d5af207ff9bd42e799c6cf6fd7bc4555f64736f6c63430008180033",
  "linkReferences": {},
  "deployedLinkReferences": {}
}